:101C000012C02CC02BC02AC029C028C027C026C0A3
:101C100025C024C023C022C021C020C01FC01EC0B8
:101C20001DC01CC01BC011241FBECFE5D4E0DEBF09
:101C3000CDBF10E0A0E6B0E0E0E6FFE102C0059015
:101C40000D92A636B107D9F710E0A6E6B0E001C0C4
:101C50001D92AC36B107E1F710D080C1D1CF5D9BAA
:101C6000FECF8CB908955F9BFECF8CB10895E091B3
:101C70006600F0916700099508954F925F926F9208
:101C80007F928F929F92AF92BF92CF92DF92EF920C
:101C9000FF920F931F93CF93DF9310BC88E089B915
:101CA00086E880BD88E18AB982E6D9DF20E040E598
:101CB00053ECCA010197F1F75F9B03C08CB18037E9
:101CC00021F02F5F2A30A9F730C180E7C8DF63E039
:101CD000762E6624639455E0552E41E1442EC3DFF1
:101CE000863509F472C08735C8F48C3409F4E1C034
:101CF0008D3450F4823409F476C0853409F4D9C0A7
:101D0000813409F00FC128C0833509F456C08435E9
:101D100009F447C0803509F005C1CBC0853659F1BB
:101D2000863648F48136B1F0823609F456C08835DB
:101D300009F0F8C050C0803709F44BC0813720F457
:101D4000873609F0EFC0B7C0833769F1843709F0EF
:101D5000E9C02FC089E5E7C086DF182F84DFB12EE8
:101D6000AA2490E08A299B299093690080936800B7
:101D7000880F991F81C0E0E0F0E00AC007B600FCC0
:101D8000FDCFE199FECF70925700E895E05CFF4FE0
:101D90002CE1E030F20790F3F0936B00E0936A00DF
:101DA00088C061DF86C087E05ADF83E958DF8EE1B3
:101DB000BAC086E754DF80E0B6C0C0E6D0E002C01B
:101DC0004EDF219688818823D9F780E348DF82E3BC
:101DD000AAC083E5A8C04BDF6CC089E540DF80E086
:101DE0003EDF80E4A0C03FDF3EDF082F813408F0F3
:101DF00099C039DF863409F044C080916A0090911F
:101E00006B0081509C4110F080E029DFC0906A0097
:101E1000D0906B0007B600FCFDCFE02EE694E60103
:101E2000FF2410C020DF082F1EDF982E882410E02A
:101E300008291929FE01080160925700E89511242C
:101E40002296F394FE1470F38E2D90E0880F991F64
:101E50008C0D9D1D07B600FCFDCFE199FECFE091F2
:101E60006A00F0916B0050925700E89507B600FCAD
:101E7000FDCF40925700E89590936B0080936A00E5
:101E800018C0853409F04EC010E011C0ECDE682F98
:101E9000809168009091690054D080916800909181
:101EA0006900019690936900809368001F5F101786
:101EB00068F38DE038C0D7DED6DEE82ED4DE863477
:101EC000D1F4FF2415C0E0916A00F0916B000591F8
:101ED0001491802FC4DE812FC2DE80916A00909120
:101EE0006B00029690936B0080936A00F2E0FF0E05
:101EF000FE1448F3F4CE8534A9F410E010C08091AC
:101F000068009091690015D0AADE809168009091D8
:101F10006900019690936900809368001F5F1E1509
:101F200070F3DDCE8FE39BDEDACE81E698DE9FDEB6
:101F3000CCCEE199FECF9FBB8EBBE09A99278DB3A3
:101F40000895262FE199FECF9FBB8EBB2DBB0FB608
:101F5000F894E29AE19A0FBE01960895F894FFCFA3
:061F600046444C2076000F
:0400000300001C00DD
:00000001FF
